{
  "address": "0x6A7b7e0A49D07412dF2F627dfaCA0e5adacE5b53",
  "abi": [
    {
      "inputs": [],
      "stateMutability": "nonpayable",
      "type": "constructor"
    },
    {
      "anonymous": false,
      "inputs": [
        {
          "indexed": true,
          "internalType": "string",
          "name": "isbn",
          "type": "string"
        },
        {
          "indexed": false,
          "internalType": "string",
          "name": "title",
          "type": "string"
        },
        {
          "indexed": false,
          "internalType": "uint256",
          "name": "year",
          "type": "uint256"
        },
        {
          "indexed": false,
          "internalType": "string",
          "name": "author",
          "type": "string"
        }
      ],
      "name": "BookAdded",
      "type": "event"
    },
    {
      "anonymous": false,
      "inputs": [
        {
          "indexed": true,
          "internalType": "string",
          "name": "isbn",
          "type": "string"
        }
      ],
      "name": "BookDeleted",
      "type": "event"
    },
    {
      "anonymous": false,
      "inputs": [
        {
          "indexed": true,
          "internalType": "string",
          "name": "isbn",
          "type": "string"
        },
        {
          "indexed": false,
          "internalType": "string",
          "name": "title",
          "type": "string"
        },
        {
          "indexed": false,
          "internalType": "uint256",
          "name": "year",
          "type": "uint256"
        },
        {
          "indexed": false,
          "internalType": "string",
          "name": "author",
          "type": "string"
        }
      ],
      "name": "BookUpdated",
      "type": "event"
    },
    {
      "inputs": [
        {
          "internalType": "string",
          "name": "_isbn",
          "type": "string"
        },
        {
          "internalType": "string",
          "name": "_title",
          "type": "string"
        },
        {
          "internalType": "uint256",
          "name": "_year",
          "type": "uint256"
        },
        {
          "internalType": "string",
          "name": "_author",
          "type": "string"
        }
      ],
      "name": "addBook",
      "outputs": [],
      "stateMutability": "nonpayable",
      "type": "function"
    },
    {
      "inputs": [
        {
          "internalType": "string",
          "name": "_isbn",
          "type": "string"
        }
      ],
      "name": "deleteBook",
      "outputs": [],
      "stateMutability": "nonpayable",
      "type": "function"
    },
    {
      "inputs": [
        {
          "internalType": "string",
          "name": "_isbn",
          "type": "string"
        }
      ],
      "name": "getBookByISBN",
      "outputs": [
        {
          "internalType": "string",
          "name": "",
          "type": "string"
        },
        {
          "internalType": "string",
          "name": "",
          "type": "string"
        },
        {
          "internalType": "uint256",
          "name": "",
          "type": "uint256"
        },
        {
          "internalType": "string",
          "name": "",
          "type": "string"
        }
      ],
      "stateMutability": "view",
      "type": "function"
    },
    {
      "inputs": [
        {
          "internalType": "string",
          "name": "_isbn",
          "type": "string"
        },
        {
          "internalType": "string",
          "name": "_title",
          "type": "string"
        },
        {
          "internalType": "uint256",
          "name": "_year",
          "type": "uint256"
        },
        {
          "internalType": "string",
          "name": "_author",
          "type": "string"
        }
      ],
      "name": "updateBook",
      "outputs": [],
      "stateMutability": "nonpayable",
      "type": "function"
    }
  ],
  "transactionHash": "0x425934cea1577ced54d97236e425f53a928e0d1c92e5c4f12a7770ee7ceab2a2",
  "args": [],
  "numDeployments": 1,
  "solcInputHash": "2658836a1175d08b87a3482108223070",
  "bytecode": "0x608060405234801561001057600080fd5b50600180546001600160a01b03191633179055610da3806100326000396000f3fe608060405234801561001057600080fd5b506004361061004c5760003560e01c8063233d280c14610051578063598e14551461007d5780638cd35f4914610092578063f9637523146100a5575b600080fd5b61006461005f366004610a80565b6100b8565b6040516100749493929190610b0f565b60405180910390f35b61009061008b366004610b59565b610318565b005b6100906100a0366004610b59565b61061a565b6100906100b3366004610a80565b61083f565b606080600081846100e45760405162461bcd60e51b81526004016100db90610bfd565b60405180910390fd5b60008087876040516100f7929190610c34565b908152602001604051809103902060405180608001604052908160008201805461012090610c44565b80601f016020809104026020016040519081016040528092919081815260200182805461014c90610c44565b80156101995780601f1061016e57610100808354040283529160200191610199565b820191906000526020600020905b81548152906001019060200180831161017c57829003601f168201915b505050505081526020016001820180546101b290610c44565b80601f01602080910402602001604051908101604052809291908181526020018280546101de90610c44565b801561022b5780601f106102005761010080835404028352916020019161022b565b820191906000526020600020905b81548152906001019060200180831161020e57829003601f168201915b505050505081526020016002820154815260200160038201805461024e90610c44565b80601f016020809104026020016040519081016040528092919081815260200182805461027a90610c44565b80156102c75780601f1061029c576101008083540402835291602001916102c7565b820191906000526020600020905b8154815290600101906020018083116102aa57829003601f168201915b505050505081525050905060008160400151116102f65760405162461bcd60e51b81526004016100db90610c7e565b8051602082015160408301516060909301519199909850919650945092505050565b6001546001600160a01b031633146103425760405162461bcd60e51b81526004016100db90610cc7565b8561035f5760405162461bcd60e51b81526004016100db90610bfd565b836103ac5760405162461bcd60e51b815260206004820152601860248201527f4a7564756c20746964616b20626f6c6568206b6f736f6e67000000000000000060448201526064016100db565b600083116103fc5760405162461bcd60e51b815260206004820152601860248201527f546168756e206861727573206c6562696820646172692030000000000000000060448201526064016100db565b6000878760405161040e929190610c34565b90815260200160405180910390206002015460001461047b5760405162461bcd60e51b815260206004820152602360248201527f42756b752064656e67616e204953424e2074657273656275742073756461682060448201526261646160e81b60648201526084016100db565b6040805160a06020601f8a018190040282018101909252608081018881526000928291908b908b9081908501838280828437600092019190915250505090825250604080516020601f8a0181900481028201810190925288815291810191908990899081908401838280828437600092019190915250505090825250602080820187905260408051601f870183900483028101830182528681529201919086908690819084018382808284376000920182905250939094525050604051929350839290915061054d908b908b90610c34565b90815260200160405180910390206000820151816000019080519060200190610577929190610961565b5060208281015180516105909260018501920190610961565b5060408201516002820155606082015180516105b6916003840191602090910190610961565b50506040516105c9915089908990610c34565b60405180910390207f64fff20dbda90e6afeec43591f51eabd68b1b87b7aa709c00f21070707e3ea138787878787604051610608959493929190610d34565b60405180910390a25050505050505050565b6001546001600160a01b031633146106445760405162461bcd60e51b81526004016100db90610cc7565b856106615760405162461bcd60e51b81526004016100db90610bfd565b6000808888604051610674929190610c34565b908152602001604051809103902060020154116106a35760405162461bcd60e51b81526004016100db90610c7e565b604051806080016040528088888080601f016020809104026020016040519081016040528093929190818152602001838380828437600092019190915250505090825250604080516020601f890181900481028201810190925287815291810191908890889081908401838280828437600092019190915250505090825250602080820186905260408051601f860183900483028101830182528581529201919085908590819084018382808284376000920182905250939094525050604051909150610773908a908a90610c34565b9081526020016040518091039020600082015181600001908051906020019061079d929190610961565b5060208281015180516107b69260018501920190610961565b5060408201516002820155606082015180516107dc916003840191602090910190610961565b50506040516107ef915088908890610c34565b60405180910390207f1d6e9ac6456a38d154574dc5f64d9a9ec5ccb282574cd3a2b4d152ea8261edc3868686868660405161082e959493929190610d34565b60405180910390a250505050505050565b6001546001600160a01b031633146108695760405162461bcd60e51b81526004016100db90610cc7565b806108865760405162461bcd60e51b81526004016100db90610bfd565b6000808383604051610899929190610c34565b908152602001604051809103902060020154116108c85760405162461bcd60e51b81526004016100db90610c7e565b600082826040516108da929190610c34565b90815260405190819003602001902060006108f582826109e5565b6109036001830160006109e5565b600282016000905560038201600061091b91906109e5565b5050818160405161092d929190610c34565b604051908190038120907f1e249c00741a4837800f8fb78a8a6024d8cddf10bac1f001258305a2644e169a90600090a25050565b82805461096d90610c44565b90600052602060002090601f01602090048101928261098f57600085556109d5565b82601f106109a857805160ff19168380011785556109d5565b828001600101855582156109d5579182015b828111156109d55782518255916020019190600101906109ba565b506109e1929150610a22565b5090565b5080546109f190610c44565b6000825580601f10610a01575050565b601f016020900490600052602060002090810190610a1f9190610a22565b50565b5b808211156109e15760008155600101610a23565b60008083601f840112610a4957600080fd5b50813567ffffffffffffffff811115610a6157600080fd5b602083019150836020828501011115610a7957600080fd5b9250929050565b60008060208385031215610a9357600080fd5b823567ffffffffffffffff811115610aaa57600080fd5b610ab685828601610a37565b90969095509350505050565b6000815180845260005b81811015610ae857602081850181015186830182015201610acc565b81811115610afa576000602083870101525b50601f01601f19169290920160200192915050565b608081526000610b226080830187610ac2565b8281036020840152610b348187610ac2565b90508460408401528281036060840152610b4e8185610ac2565b979650505050505050565b60008060008060008060006080888a031215610b7457600080fd5b873567ffffffffffffffff80821115610b8c57600080fd5b610b988b838c01610a37565b909950975060208a0135915080821115610bb157600080fd5b610bbd8b838c01610a37565b909750955060408a0135945060608a0135915080821115610bdd57600080fd5b50610bea8a828b01610a37565b989b979a50959850939692959293505050565b60208082526017908201527f4953424e20746964616b20626f6c6568206b6f736f6e67000000000000000000604082015260600190565b8183823760009101908152919050565b600181811c90821680610c5857607f821691505b602082108103610c7857634e487b7160e01b600052602260045260246000fd5b50919050565b60208082526029908201527f42756b752064656e67616e204953424e20746572736562757420746964616b206040820152683234ba32b6bab5b0b760b91b606082015260800190565b60208082526024908201527f48616e79612061646d696e2079616e67206461706174206d656c616b756b616e60408201526320696e6960e01b606082015260800190565b81835281816020850137506000828201602090810191909152601f909101601f19169091010190565b606081526000610d48606083018789610d0b565b8560208401528281036040840152610d61818587610d0b565b9897505050505050505056fea26469706673582212205cd88d29632a0be1a1a999fc6f4b723d3ea9bfcc6ebdac82b3531b9088e8522c64736f6c634300080d0033",
  "devdoc": {
    "kind": "dev",
    "methods": {},
    "version": 1
  },
  "userdoc": {
    "kind": "user",
    "methods": {},
    "version": 1
  },
  "storageLayout": {
    "storage": [
      {
        "astId": 15,
        "contract": "contracts/SimpleLibrary.sol:SimpleLibrary",
        "label": "books",
        "offset": 0,
        "slot": "0",
        "type": "t_mapping(t_string_memory_ptr,t_struct(Book)10_storage)"
      },
      {
        "astId": 17,
        "contract": "contracts/SimpleLibrary.sol:SimpleLibrary",
        "label": "admin",
        "offset": 0,
        "slot": "1",
        "type": "t_address"
      }
    ],
    "types": {
      "t_address": {
        "encoding": "inplace",
        "label": "address",
        "numberOfBytes": "20"
      },
      "t_mapping(t_string_memory_ptr,t_struct(Book)10_storage)": {
        "encoding": "mapping",
        "key": "t_string_memory_ptr",
        "label": "mapping(string => struct SimpleLibrary.Book)",
        "numberOfBytes": "32",
        "value": "t_struct(Book)10_storage"
      },
      "t_string_memory_ptr": {
        "encoding": "bytes",
        "label": "string",
        "numberOfBytes": "32"
      },
      "t_string_storage": {
        "encoding": "bytes",
        "label": "string",
        "numberOfBytes": "32"
      },
      "t_struct(Book)10_storage": {
        "encoding": "inplace",
        "label": "struct SimpleLibrary.Book",
        "members": [
          {
            "astId": 3,
            "contract": "contracts/SimpleLibrary.sol:SimpleLibrary",
            "label": "isbn",
            "offset": 0,
            "slot": "0",
            "type": "t_string_storage"
          },
          {
            "astId": 5,
            "contract": "contracts/SimpleLibrary.sol:SimpleLibrary",
            "label": "title",
            "offset": 0,
            "slot": "1",
            "type": "t_string_storage"
          },
          {
            "astId": 7,
            "contract": "contracts/SimpleLibrary.sol:SimpleLibrary",
            "label": "year",
            "offset": 0,
            "slot": "2",
            "type": "t_uint256"
          },
          {
            "astId": 9,
            "contract": "contracts/SimpleLibrary.sol:SimpleLibrary",
            "label": "author",
            "offset": 0,
            "slot": "3",
            "type": "t_string_storage"
          }
        ],
        "numberOfBytes": "128"
      },
      "t_uint256": {
        "encoding": "inplace",
        "label": "uint256",
        "numberOfBytes": "32"
      }
    }
  }
}